{
  "contractName": "SimpleCallOption",
  "abi": [
    {
      "constant": true,
      "inputs": [
        {
          "name": "",
          "type": "uint256"
        }
      ],
      "name": "optionList",
      "outputs": [
        {
          "name": "assets",
          "type": "string"
        },
        {
          "name": "strikePrice",
          "type": "uint8"
        },
        {
          "name": "timeToMaturity",
          "type": "uint8"
        },
        {
          "name": "riskFreeRate",
          "type": "uint8"
        },
        {
          "name": "exercised",
          "type": "bool"
        }
      ],
      "payable": false,
      "stateMutability": "view",
      "type": "function"
    },
    {
      "inputs": [],
      "payable": false,
      "stateMutability": "nonpayable",
      "type": "constructor"
    },
    {
      "anonymous": false,
      "inputs": [
        {
          "indexed": false,
          "name": "addr",
          "type": "address"
        },
        {
          "indexed": false,
          "name": "assets",
          "type": "string"
        },
        {
          "indexed": false,
          "name": "strikePrice",
          "type": "uint8"
        },
        {
          "indexed": false,
          "name": "marketPrice",
          "type": "uint8"
        },
        {
          "indexed": false,
          "name": "timeToMaturity",
          "type": "uint8"
        },
        {
          "indexed": false,
          "name": "riskFreeRate",
          "type": "uint8"
        },
        {
          "indexed": false,
          "name": "exercised",
          "type": "bool"
        }
      ],
      "name": "newOption",
      "type": "event"
    },
    {
      "constant": false,
      "inputs": [
        {
          "name": "_spotPrice",
          "type": "uint8"
        }
      ],
      "name": "setCurrentMarketPrice",
      "outputs": [
        {
          "name": "",
          "type": "uint8"
        }
      ],
      "payable": false,
      "stateMutability": "nonpayable",
      "type": "function"
    },
    {
      "constant": true,
      "inputs": [],
      "name": "getCurrentMarketPrice",
      "outputs": [
        {
          "name": "",
          "type": "uint8"
        }
      ],
      "payable": false,
      "stateMutability": "view",
      "type": "function"
    },
    {
      "constant": false,
      "inputs": [
        {
          "name": "_addr",
          "type": "address"
        },
        {
          "name": "_assets",
          "type": "string"
        },
        {
          "name": "_strikePrice",
          "type": "uint8"
        },
        {
          "name": "_timeToMaturity",
          "type": "uint8"
        },
        {
          "name": "_riskFreeRate",
          "type": "uint8"
        }
      ],
      "name": "addOption",
      "outputs": [
        {
          "name": "",
          "type": "address"
        },
        {
          "name": "",
          "type": "string"
        },
        {
          "name": "",
          "type": "uint8"
        },
        {
          "name": "",
          "type": "uint8"
        },
        {
          "name": "",
          "type": "uint8"
        },
        {
          "name": "",
          "type": "bool"
        },
        {
          "name": "",
          "type": "uint8"
        }
      ],
      "payable": false,
      "stateMutability": "nonpayable",
      "type": "function"
    }
  ],
  "bytecode": "0x608060405234801561001057600080fd5b50336000806101000a81548173ffffffffffffffffffffffffffffffffffffffff021916908373ffffffffffffffffffffffffffffffffffffffff160217905550610ae5806100606000396000f3fe608060405234801561001057600080fd5b506004361061004c5760003560e01c80631ae74cce14610051578063573489a9146100755780638b650ac21461014e578063c3c5073d14610199575b600080fd5b610059610386565b604051808260ff1660ff16815260200191505060405180910390f35b6100a16004803603602081101561008b57600080fd5b810190808035906020019092919050505061039c565b60405180806020018660ff1660ff1681526020018560ff1660ff1681526020018460ff1660ff16815260200183151515158152602001828103825287818151815260200191508051906020019080838360005b8381101561010f5780820151818401526020810190506100f4565b50505050905090810190601f16801561013c5780820380516001836020036101000a031916815260200191505b50965050505050505060405180910390f35b61017d6004803603602081101561016457600080fd5b81019080803560ff1690602001909291905050506104ab565b604051808260ff1660ff16815260200191505060405180910390f35b610299600480360360a08110156101af57600080fd5b81019080803573ffffffffffffffffffffffffffffffffffffffff169060200190929190803590602001906401000000008111156101ec57600080fd5b8201836020820111156101fe57600080fd5b8035906020019184600183028401116401000000008311171561022057600080fd5b91908080601f016020809104026020016040519081016040528093929190818152602001838380828437600081840152601f19601f820116905080830192505050505050509192919290803560ff169060200190929190803560ff169060200190929190803560ff1690602001909291905050506105a1565b604051808873ffffffffffffffffffffffffffffffffffffffff1673ffffffffffffffffffffffffffffffffffffffff168152602001806020018760ff1660ff1681526020018660ff1660ff1681526020018560ff1660ff168152602001841515151581526020018360ff1660ff168152602001828103825288818151815260200191508051906020019080838360005b8381101561034557808201518184015260208101905061032a565b50505050905090810190601f1680156103725780820380516001836020036101000a031916815260200191505b509850505050505050505060405180910390f35b60008060149054906101000a900460ff16905090565b600281815481106103a957fe5b9060005260206000209060020201600091509050806000018054600181600116156101000203166002900480601f0160208091040260200160405190810160405280929190818152602001828054600181600116156101000203166002900480156104555780601f1061042a57610100808354040283529160200191610455565b820191906000526020600020905b81548152906001019060200180831161043857829003601f168201915b5050505050908060010160009054906101000a900460ff16908060010160019054906101000a900460ff16908060010160029054906101000a900460ff16908060010160039054906101000a900460ff16905085565b60003373ffffffffffffffffffffffffffffffffffffffff166000809054906101000a900473ffffffffffffffffffffffffffffffffffffffff1673ffffffffffffffffffffffffffffffffffffffff161461056f576040517f08c379a00000000000000000000000000000000000000000000000000000000081526004018080602001828103825260188152602001807f796f7520646f6e2774206861766520617574686f72697479000000000000000081525060200191505060405180910390fd5b81600060146101000a81548160ff021916908360ff160217905550600060149054906101000a900460ff169050919050565b6000606060008060008060006105b5610386565b600060146101000a81548160ff021916908360ff16021790555060008090506040518060a001604052808d81526020018c60ff1681526020018b60ff1681526020018a60ff168152602001821515815250600160008f73ffffffffffffffffffffffffffffffffffffffff1673ffffffffffffffffffffffffffffffffffffffff168152602001908152602001600020600082015181600001908051906020019061066192919061098d565b5060208201518160010160006101000a81548160ff021916908360ff16021790555060408201518160010160016101000a81548160ff021916908360ff16021790555060608201518160010160026101000a81548160ff021916908360ff16021790555060808201518160010160036101000a81548160ff0219169083151502179055509050506002600160008f73ffffffffffffffffffffffffffffffffffffffff1673ffffffffffffffffffffffffffffffffffffffff168152602001908152602001600020908060018154018082558091505090600182039060005260206000209060020201600090919290919091506000820181600001908054600181600116156101000203166002900461077b929190610a0d565b506001820160009054906101000a900460ff168160010160006101000a81548160ff021916908360ff1602179055506001820160019054906101000a900460ff168160010160016101000a81548160ff021916908360ff1602179055506001820160029054906101000a900460ff168160010160026101000a81548160ff021916908360ff1602179055506001820160039054906101000a900460ff168160010160036101000a81548160ff0219169083151502179055505050507ff5244eb486fce05cc79c61cd259aa850596fc6cd39870effbf4df894cefa052f8d8d8d600060149054906101000a900460ff168e8e87604051808873ffffffffffffffffffffffffffffffffffffffff1673ffffffffffffffffffffffffffffffffffffffff168152602001806020018760ff1660ff1681526020018660ff1660ff1681526020018560ff1660ff1681526020018460ff1660ff16815260200183151515158152602001828103825288818151815260200191508051906020019080838360005b838110156109195780820151818401526020810190506108fe565b50505050905090810190601f1680156109465780820380516001836020036101000a031916815260200191505b509850505050505050505060405180910390a18c8c8c8c8c85600060149054906101000a900460ff16975097509750975097509750975050959b949a509550955095509550565b828054600181600116156101000203166002900490600052602060002090601f016020900481019282601f106109ce57805160ff19168380011785556109fc565b828001600101855582156109fc579182015b828111156109fb5782518255916020019190600101906109e0565b5b509050610a099190610a94565b5090565b828054600181600116156101000203166002900490600052602060002090601f016020900481019282601f10610a465780548555610a83565b82800160010185558215610a8357600052602060002091601f016020900482015b82811115610a82578254825591600101919060010190610a67565b5b509050610a909190610a94565b5090565b610ab691905b80821115610ab2576000816000905550600101610a9a565b5090565b9056fea165627a7a72305820e1c8954ba3e792fd3571f3912a6fb6b3c168ed3b8fdb3b491ce34d889a6bd7250029",
  "source": "pragma solidity ^0.5.0;\n\ncontract SimpleCallOption {\n    address owner;\n    uint8 spotPrice;\n    \n    constructor () public {\n        owner = msg.sender;\n    }\n    \n    modifier onlyOwner {\n        require(owner == msg.sender, \"you don't have authority\");\n        _;\n    }\n    \n    struct optionInfo{\n        string assets;\n        uint8 strikePrice;\n        uint8 timeToMaturity;\n        uint8 riskFreeRate;\n        bool exercised;\n    }\n    \n    mapping (address => optionInfo ) private option;\n    optionInfo[] public optionList;\n    event newOption(address addr, string assets, uint8 strikePrice, uint8 marketPrice, uint8 timeToMaturity, uint8 riskFreeRate, bool exercised);\n    \n    function setCurrentMarketPrice(uint8 _spotPrice) public onlyOwner returns (uint8)  {\n        spotPrice = _spotPrice;\n        return spotPrice;\n    }\n    \n    function getCurrentMarketPrice() public view returns (uint8){\n        return spotPrice;\n    }\n    \n    function addOption (address _addr, string memory _assets, uint8 _strikePrice, uint8 _timeToMaturity, uint8 _riskFreeRate) public returns(address, string memory, uint8, uint8, uint8, bool, uint8){\n        spotPrice = getCurrentMarketPrice();\n        bool exercised = false;\n        option[_addr]=optionInfo(_assets, _strikePrice, _timeToMaturity, _riskFreeRate, exercised);\n        optionList.push(option[_addr]);\n        emit newOption(_addr, _assets, _strikePrice, spotPrice, _timeToMaturity, _riskFreeRate, exercised);\n        return (_addr, _assets, _strikePrice, _timeToMaturity, _riskFreeRate, exercised, spotPrice);\n    }\n      \n}",
  "sourcePath": "/Users/zilanouyang/Downloads/SimpleCallOption-frontend/contracts/SimpleCallOption.sol",
  "compiler": {
    "name": "solc",
    "version": "0.5.8+commit.23d335f2.Emscripten.clang"
  },
  "schemaVersion": "3.0.11",
  "updatedAt": "2019-07-07T21:30:25.433Z",
  "devdoc": {
    "methods": {}
  },
  "userdoc": {
    "methods": {}
  }
}